{
    "_format": "hh-sol-artifact-1",
    "contractName": "WavePortal",
    "sourceName": "contracts/WavePortal.sol",
    "abi": [
        {
            "inputs": [],
            "stateMutability": "nonpayable",
            "type": "constructor"
        },
        {
            "inputs": [],
            "name": "getTotalHighFives",
            "outputs": [
                {
                    "internalType": "uint256",
                    "name": "",
                    "type": "uint256"
                }
            ],
            "stateMutability": "view",
            "type": "function"
        },
        {
            "inputs": [],
            "name": "getTotalWaves",
            "outputs": [
                {
                    "internalType": "uint256",
                    "name": "",
                    "type": "uint256"
                }
            ],
            "stateMutability": "view",
            "type": "function"
        },
        {
            "inputs": [],
            "name": "highFive",
            "outputs": [],
            "stateMutability": "nonpayable",
            "type": "function"
        },
        {
            "inputs": [],
            "name": "wave",
            "outputs": [],
            "stateMutability": "nonpayable",
            "type": "function"
        }
    ],
    "bytecode": "0x608060405234801561001057600080fd5b5061003c6040518060600160405280602481526020016108036024913961004160201b6101eb1760201c565b6101c4565b6100dd816040516024016100559190610142565b6040516020818303038152906040527f41304fac000000000000000000000000000000000000000000000000000000007bffffffffffffffffffffffffffffffffffffffffffffffffffffffff19166020820180517bffffffffffffffffffffffffffffffffffffffffffffffffffffffff83818316178352505050506100e060201b60201c565b50565b60008151905060006a636f6e736f6c652e6c6f679050602083016000808483855afa5050505050565b600061011482610164565b61011e818561016f565b935061012e818560208601610180565b610137816101b3565b840191505092915050565b6000602082019050818103600083015261015c8184610109565b905092915050565b600081519050919050565b600082825260208201905092915050565b60005b8381101561019e578082015181840152602081019050610183565b838111156101ad576000848401525b50505050565b6000601f19601f8301169050919050565b610630806101d36000396000f3fe608060405234801561001057600080fd5b506004361061004c5760003560e01c80633e06f67f146100515780636fe15b441461006f578063707824d3146100795780639a2cdc0814610083575b600080fd5b6100596100a1565b60405161006691906104be565b60405180910390f35b6100776100ec565b005b610081610146565b005b61008b6101a0565b60405161009891906104be565b60405180910390f35b60006100e46040518060400160405280601c81526020017f5765206861766520256420746f74616c20686967682066697665732100000000815250600154610284565b600154905090565b60016000808282546100fe91906104f5565b925050819055506101446040518060400160405280600d81526020017f257320686173207761766564210000000000000000000000000000000000000081525033610320565b565b600180600082825461015891906104f5565b9250508190555061019e6040518060400160405280601281526020017f257320686173206869676820666976656421000000000000000000000000000081525033610320565b565b60006101e36040518060400160405280601781526020017f5765206861766520256420746f74616c20776176657321000000000000000000815250600054610284565b600054905090565b610281816040516024016101ff919061043c565b6040516020818303038152906040527f41304fac000000000000000000000000000000000000000000000000000000007bffffffffffffffffffffffffffffffffffffffffffffffffffffffff19166020820180517bffffffffffffffffffffffffffffffffffffffffffffffffffffffff83818316178352505050506103bc565b50565b61031c828260405160240161029a92919061048e565b6040516020818303038152906040527f9710a9d0000000000000000000000000000000000000000000000000000000007bffffffffffffffffffffffffffffffffffffffffffffffffffffffff19166020820180517bffffffffffffffffffffffffffffffffffffffffffffffffffffffff83818316178352505050506103bc565b5050565b6103b8828260405160240161033692919061045e565b6040516020818303038152906040527f319af333000000000000000000000000000000000000000000000000000000007bffffffffffffffffffffffffffffffffffffffffffffffffffffffff19166020820180517bffffffffffffffffffffffffffffffffffffffffffffffffffffffff83818316178352505050506103bc565b5050565b60008151905060006a636f6e736f6c652e6c6f679050602083016000808483855afa5050505050565b6103ee8161054b565b82525050565b60006103ff826104d9565b61040981856104e4565b9350610419818560208601610587565b610422816105e9565b840191505092915050565b6104368161057d565b82525050565b6000602082019050818103600083015261045681846103f4565b905092915050565b6000604082019050818103600083015261047881856103f4565b905061048760208301846103e5565b9392505050565b600060408201905081810360008301526104a881856103f4565b90506104b7602083018461042d565b9392505050565b60006020820190506104d3600083018461042d565b92915050565b600081519050919050565b600082825260208201905092915050565b60006105008261057d565b915061050b8361057d565b9250827fffffffffffffffffffffffffffffffffffffffffffffffffffffffffffffffff038211156105405761053f6105ba565b5b828201905092915050565b60006105568261055d565b9050919050565b600073ffffffffffffffffffffffffffffffffffffffff82169050919050565b6000819050919050565b60005b838110156105a557808201518184015260208101905061058a565b838111156105b4576000848401525b50505050565b7f4e487b7100000000000000000000000000000000000000000000000000000000600052601160045260246000fd5b6000601f19601f830116905091905056fea26469706673582212206a93fda7e38af4792953b582d8965ad24cae3cf47ee026c7994d17bb67d1f67464736f6c63430008000033596f20796f2c204920616d206120636f6e747261637420616d204920616d20736d617274",
    "linkReferences": {},
    "deployedLinkReferences": {}
}